:0300000002004CAF
:200008000000E2FBEAF2802C0000E0FBEAF08024E6B50202EBF62200E2B50202EBF22200DE
:20002800E0B50202EBF02230F6E0A88220F5D3EAC6F582228B822230F6E6A88220F5D980EE
:01004800CFE8
:0300A5000200490D
:030049000202446C
:2000A800E582900002F0E0900001F022AF83E582900003F0EFA3F0900003E0FEA3E0FF7CBF
:2000C800007D00C3EC9EED9F50157A7B7B00001ABAFF011BEA4B70F60CBC00E70D80E42221
:2000E800E582900005F0E0FF74F05FFEEFC454F0FF5307F0C007C00612027A900001E0F5AB
:200108008212029AD006740C4EF582C00612029A9000011200B4D0064306088E8212029ADC
:200128009000011200B4D007740C4FF582C00712029A9000011200B4D0074307088F82122B
:20014800029A90000A1200B4020289E582900006F0E0FF74F05FFEEFC454F0FF5307F0C081
:2001680007C00612027A900001E0F58212029AD006740D4EF582C00612029A900001120053
:20018800B4D0064306098E8212029A9000011200B4D007740D4FF582C00712029A90000142
:2001A8001200B4D0074307098F8212029A90000A1200B4020289AFF0AE83E582900007F0DD
:2001C800EEA3F0EFA3F0900007E0FDA3E0FEA3E0FF8D828E838FF0120319FC60230DBD0087
:2001E800010E900007EDF0EEA3F0EFA3F08C82C007C006C005120153D005D006D00780D1D8
:20020800900007EDF0EEA3F0EFA3F0229000321200B47582021200E87582281200E87582B2
:200228000C1200E87582061200E87582011200E890000A1200B47582800200E89000641200
:1F02480000B412026775824E1200A81202147582801200E890033975F0801201BE80FED0
:0D03390048656C6C6F20576F726C6421007A
:20026700D287D286227E327F001EBEFF011FEE4F70F722D287D28612026CC28712026CC2F8
:200287008622C286C28712026CD28612026CD28702026CE58290000AF07F0090000AE0FE15
:2002A700548024FF9287EE2E90000AF0D286C00712026CC28612026CD0070FBF080040DB52
:2002C700D287D28612026C2087FDC28602026C90000BE4F0D2877F00D286C00712026CD0D4
:2002E7000790000BE025E0F030870890000BE043E001F0C286C00712026CD0070FBF0800F6
:1203070040D6D287D28612026CC28690000BE0F5822241
:06007B00E478FFF6D8FD59
:200059007900E94400601B7A00900346780C75A000E493F2A308B8000205A0D9F4DAF275F9
:02007900A0FFE6
:200081007800E84400600A790175A000E4F309D8FC780BE84400600C7901900001E4F0A371
:0400A100D8FCD9FAB4
:0D004C00758107120335E58260030200494B
:1C03190020F71430F6148883A88220F507E6A88375830022E280F7E49322E022F3
:0403350075820022AB
:00000001FF
